:020000040800F2
:1000000050CC002005020008896D0008816D0008B1
:10001000856D0008456400081971000800000000A3
:100020000000000000000000000000004501000882
:10003000AB64000800000000A1010008D56E0008B4
:100040001F0200081F0200081F0200081F0200080C
:100050001F0200081F0200081F0200081F020008FC
:100060001F0200081F0200081F0200081F020008EC
:100070001F0200081F0200081F0200081F020008DC
:100080001F0200081F0200081F0200081F020008CC
:100090001F0200081F0200081F020008F964000880
:1000A0001F0200081F0200081F0200081F020008AC
:1000B000E96F00081F0200081F0200081F02000865
:1000C0001F0200081F0200081F0200081F0200088C
:1000D0001F0200081F020008B1700008E570000848
:1000E0001F0200081F0200081F0200081F0200086C
:1000F000117000081F0200081F0200081F020008FC
:100100001F0200081F0200081F0200081F0200084B
:100110001F020008717000081F0200081F0200087B
:100120001F0200081F0200081F0200081F0200082B
:10013000DFF80CD000F006FE0048004735910008BB
:1001400050CC00202C4B19680868B0E8F04F80F3C1
:100150000988BFF36F8F4FF0000080F3118870475C
:100160000000000008480068006880F308884FF02D
:10017000000080F3148862B661B6BFF34F8FBFF3FF
:100180006F8F00DF00BF00BF08ED00E0DFF80C005C
:10019000016841F470010160704700BF88ED00E024
:1001A000EFF30980BFF36F8F134B1A681EF0100F27
:1001B00008BF20ED108A20E9F04F106009B44FF01D
:1001C000300080F31188BFF34F8FBFF36F8F0CF0B7
:1001D0002BFA4FF0000080F3118809BC19680868F9
:1001E000B0E8F04F1EF0100F08BFB0EC108A80F39B
:1001F0000988BFF36F8F704710000020EFF3058070
:10020000704700000648804706480047FEE7FEE7C3
:10021000FEE7FEE7FEE7FEE7FEE7FEE7FEE7FEE7B6
:10022000F56E000831010008202A04DB203A00FAAC
:1002300002F1002070479140C2F1200320FA03F33D
:10024000194390407047000038B5D0E90221491E9B
:1002500001EB410102EBC1014268C1EB011102EB6C
:1002600081010268C1EB011102EB8102D0E9043186
:1002700001EB410103EB81013023A1F5527191FBA8
:10028000F3F4174D6C4302EBC41291FBF3F403FB40
:10029000141100921A2902DB124B1A4400920C220C
:1002A00091FBF2F3104C6343009C04EBC3130093E7
:1002B00091FBF2F302FB13110C4A08E0491E40F2D5
:1002C000A324535C6343009C04EBC31300930029F5
:1002D000F4DC0146684600F0E1FB009838BD000000
:1002E0003F0C0F008051010067C203003ADD000897
:1002F00010B5431A934209D28318881803E010F806
:10030000011D03F8011D521EF9D210BD40EA010380
:100310009B0703D009E008C9121F08C0042AFAD2BB
:1003200003E011F8013B00F8013B521EF9D210BD69
:10033000D2B201E000F8012B491EFBD27047002227
:10034000F6E710B513460A4604461946FFF7F0FFD4
:10035000204610BD30B505462A460B4612F8010B63
:1003600013F8014B08B1A042F8D01CB1002802D00C
:100370006D1CF1E7284630BD421C10F8011B002916
:10038000FBD1801A704730B504460020034600E0D8
:100390005B1C934203D2E05CCD5C401BF8D030BDC7
:1003A00030B505460020034600E05B1C934205D2B1
:1003B000EC5CC85C201A01D1002CF6D130BD0000E5
:1003C00070B50F4D00B92868002412E00A4602E01B
:1003D0009E4203D0521C1378002BF9D1DAB222438B
:1003E00005D02BB124B1002100F8011B04E0044624
:1003F000401C0678002EE9D12860204670BD000020
:10040000B40100200FB400B58DB010A909900B9075
:1004100000914FF0FF300A9000200C9005480690A4
:10042000054807906A4609A80F9900F091FB0DB0A6
:100430005DF814FB6D0B00088B0B00082DE9FF5FC6
:100440001D464FF0FF3BD5E9014691465F464FF010
:100450000008A9697F1C01988847296A8246884755
:100460000028F6D1BAF1FF3F0CD024F4C064002E6E
:1004700019DD600614D5BAF12B0F09D0BAF12D0F92
:100480000ED103E0584604B0BDE8F09F44F4806408
:10049000A9697F1C01988847761E8246002E02DDDE
:1004A000BAF1300F03D0B9F1000F26D032E0A969BC
:1004B000761E44F400747F1C019888478246002E03
:1004C00005DDBAF1780F06D0BAF1580F03D0B9F1B3
:1004D000000F10D01EE0B9F1000F02D0B9F1100FDB
:1004E00018D1A969761E24F400747F1C01988847EE
:1004F0008246102002E0082000E00A20814609E040
:1005000008FB0908A969761E44F400747F1C019851
:1005100088478246002E05DD4946504600F004FB20
:100520000028EDDAE96901988847A00502D46FF048
:100530000100A8E7E00725D1600613D5600502D5C4
:10054000C8F1000000E0404629680A1D2A600968D9
:10055000220501D5087015E0220701D5088011E0B9
:1005600008600FE02868011D29600068210502D598
:1005700080F8008006E0210702D5A0F8008001E0A5
:10058000C0F8008038467EE72DE9FF5FD2E901A779
:100590004FF00008916999461446DDF838B0464698
:1005A00001988847054659EA0B0005D009E0A16982
:1005B000761C019888470546216A28468847002806
:1005C000F5D1681C03D05FEACA7005D015E04FF082
:1005D000FF3004B0BDE8F09F2068011D2160D0F815
:1005E00000800AE05FEACA7001D108F8015BA169E6
:1005F000761C7F1E019888470546002F1ADD681C6F
:1006000018D0B9F1000F0DD0E81705EBD0604211FA
:1006100020F01F0059F822102A1A012090400142B0
:10062000E0D107E0BBF1000FDCD1216A2846884702
:100630000028D7D0E16901988847BBF1000F07D1A6
:10064000002E05DD5FEACA7002D1002188F8001093
:10065000A068B84203DDBBF1000F03D017B16FF003
:100660000100B6E73046B4E770B5064607F0FEF87D
:10067000046805460A220021304600F097FA2C60F3
:1006800070BD2DE9FE4F804681EA0300C00F0C4685
:10069000009021F0004123F00045B8EB0200A94191
:1006A00005D24046214690461C460B46024623F0A2
:1006B0000040104347D0270DC7F30A00C3F30A5187
:1006C0000290401A019040286BDAC3F3130040F403
:1006D000801B0098924620B10023D2EB030A63EB03
:1006E0000B0B01985946C0F140025046FFF79CFDA4
:1006F00006460D4650465946019A00F0B7F910EBF0
:1007000008006141002487EA115284EAE7731A4322
:1007100040D0009A62B3019A012A4FEA075215DCD1
:10072000001B61EB02014FF0004202EA0752CDE9E3
:100730000042001C41F5801132462B4600F0B4FA0D
:1007400003B0BDE8F08F40462146F9E7001B61EB9E
:100750000201001C41F5801300185B412018A2F52E
:10076000001747EB030140EAD570B6196D4111E05F
:100770006D084FEA360645EAC0754FEA0752001B7E
:1007800061EB0201001C41F5801149084FEA30007D
:100790000019514132462B4603B0BDE8F04F00F03E
:1007A00074BA0098012240000023D0EB020263EBF0
:1007B000E073009821464FEAE074B8EB000061EB6B
:1007C0000401E9E783F000435BE781F0004158E76B
:1007D0002DE9FE4F81EA030404F0004421F00041BA
:1007E00000944FF0000B23F0004350EA01045ED068
:1007F00052EA03045BD0C3F30A54C1F30A552C44F4
:10080000A4F2F3340194A0FB0254C1F3130141F4A8
:100810008011C3F3130343F4801301FB024400FB74
:10082000034E840A970A44EA815447EA8357A4FB9B
:10083000076802958D0A05FB07854FEA932C04FB98
:100840000C542705029D4FEA065847EA1637B5EBC8
:1008500008056EEB070C870E920E47EA811742EAF5
:100860008312A7FB0201B6EB0B0164EB00042B0D16
:1008700043EA0C335E1844EB1C50DA465146E7FB62
:100880000201C5F313044FEA0B3343EA14534FEA52
:100890000432019C43EA0603A4F10C040294009C78
:1008A000CDE900B400F000FA03B0BDE8F08F0020FD
:1008B0000146F9E72DE9F04D81EA030404F0004B0D
:1008C00021F0004514464FF0000A23F0004150EAA1
:1008D000050220D054EA01021DD0C5F30A57024692
:1008E000C5F31303C1F31300C1F30A5640F4801596
:1008F00043F48013A7EB0608101BD64608F2FD3818
:1009000073EB050002D308F1010801E092185B4186
:10091000B8F1000F03DA00200146BDE8F08D002099
:100920004FF48011064684460EE0171B73EB050753
:1009300005D3121B63EB050306434CEA010C49087F
:100940004FEA300092185B4150EA0107EDD152EABC
:10095000030012D082EA040083EA0501084305D0AF
:10096000101BAB4106D20122002306E000224FF00B
:10097000004302E06FF0010253101AEB06004CEB4B
:10098000085110EB0A0041EB0B01BDE8F04D00F0FF
:100990007CB90EB540F2334102910021CDE900113E
:1009A0000A460B4600F080F903B000BD00F000429B
:1009B00030F000400AD0C10D01F56071C0F316009F
:1009C00042EA0151C2084007114370470020014626
:1009D000704701F0004330B421F0004150EA0102B9
:1009E00006D00A0DA2F56072C1F31301002A02DCE1
:1009F00030BC00207047440F44EAC104C100E01835
:100A000030BC00EBC25000F009B92DE9F05F05469B
:100A1000002092469B4688460646814640241BE0BD
:100A2000284641464746224600F09EF953465A461C
:100A3000C01A914110D3114618462246FFF7F4FB25
:100A40002D1A67EB01084F46224601200021FFF7CF
:100A5000EBFB17EB00094E41201EA4F10104DFDC83
:100A6000484631462A464346BDE8F09F202A06DB29
:100A7000CB17203A41FA02F043EAE07306E041FA6C
:100A800002F3D040C2F1200291400843194670475A
:100A9000014900F003B8000024AC002010B5006844
:100AA0003C22B0FBF2F302FB1303B0FBF2F00B604D
:100AB000B0FBF2F302FB1303B0FBF2F018224B6021
:100AC000B0FBF2F302FB1303B0FBF2F0021D8B60EC
:100AD0000723B2FBF3F403FB1422800040F2B5536A
:100AE00000F66C308A61B0FBF3F2B0FBF3F403FB69
:100AF0001400443280084A61C8613B2802D392073F
:100B000000D0401C0022074C13460A61E25C82427E
:100B100003D8801A5B1C0B61F8E7401CC8600846CC
:100B200010BD000046DD00083A2800D2303820F021
:100B30002002412A01D3A2F13700884201D34FF0AD
:100B4000FF307047026811441378016018467047FF
:100B5000D1600449516104491162002111611146BB
:100B600000F020B9450B0008910D0008426842B121
:100B7000016811F8013B23B1521EC0E9001218466A
:100B800070470121C160881E704742685AB1C3682E
:100B9000016843B983688B4205D0491E521CC0E9E5
:100BA0000012002070474FF0FF3070472DE9F047EA
:100BB00091460F4680460446002614F8015B2DB18D
:100BC00000F0E2F80068405DC007F6D12B2D02D09E
:100BD0002D2D18D0641E4A463946204600F078FA7A
:100BE00027B13968A14201D1C7F8008071054FF0E3
:100BF00002040BD54042002803DD06F037FE0460F6
:100C0000A007BDE8F08746F48066E4E70028F8DA3C
:100C100006F02CFE04606FF00040F2E70029A8BF48
:100C20007047401C490008BF20F00100704710B415
:100C3000B0FA80FC00FA0CF050EA010404BF10BCCA
:100C4000704749B1CCF1200421FA04F411FA0CF1F7
:100C500018BF012121430843A3EB0C01CB1D4FEA30
:100C600000614FEA102042BF002010BC704700EB2B
:100C7000C35010440029A4BF10BC7047401C490059
:100C800008BF20F0010010BC704710B5141E73F1AE
:100C9000000408DA401C41F1000192185B411A433C
:100CA00001D120F0010010BD2DE9F04D92469B4688
:100CB00011B1B1FA81F202E0B0FA80F2203290462E
:100CC000FFF7B2FA04460F4640EA0A0041EA0B0178
:100CD00053465A46084313D0114653EA010019D02F
:100CE000C8F14002504600F03FF805460E46504617
:100CF00059464246FFF798FA084305D0012004E020
:100D000020463946BDE8F08D0020054346EAE076EE
:100D10002C4337430A986305E40AA0EB080000223D
:100D2000FD0A44EA47540A3002D500200146E9E7AB
:100D3000010510196941DDE9084500196941BDE85F
:100D4000F04DA2E7064C074D06E0E06840F00103D5
:100D500094E8070098471034AC42F6D3FFF7ECF95B
:100D600038E0000858E00008202A04DB203A21FA85
:100D700002F00021704721FA02F3D040C2F12002B4
:100D8000914008431946704700487047D4DD000879
:100D900010B50446FFF7F8FF0068005D00F00100A1
:100DA00010BD00002DE9F34F8BB04FF0000801F1AA
:100DB0000C000C464FF0010B46460DF1080A01905D
:100DC0006269012101989047051E2DD0252D2CD058
:100DD000216A8847C0B16269012101989047216A60
:100DE00088470028F7D1411E62690198904700E0CA
:100DF000761CA1690B988847216A88470028F7D19B
:100E0000E1690B988847DBE7A1690B98884707469B
:100E1000A84201D1761CD3E7E1690B9888477F1C73
:100E200002D1B8F1000F6FD046E1002762693D465C
:100E30003946019890472A2804D162690121019816
:100E400090470125DFF8849262690121019890475B
:100E5000A0F130010A290AD24F45E5DC07EB8701F2
:100E600000EB4107303FDFD445F01005ECE7E90621
:100E700001D46FF000476C280AD04C2814D06828A1
:100E800015D06A280DD074281CD07A281AD01DE0FD
:100E900062690121019890476C2802D045F0040551
:100EA00014E045F002050DE045F020050AE0626916
:100EB000012101989047682802D045F0080505E017
:100EC00045F400656269012101989047C4E9015722
:100ED00065283DD019DC58287AD00CDC452837D05D
:100EE00004DC252826D0412831D131E046282FD0F6
:100EF00047282CD12CE05B2877D0612828D06328A4
:100F00007CD0642823D15AE0D0E06F2848D008DC98
:100F100066281DD067281BD0692821D06E2816D1DD
:100F200027E0702845D0732868D0752847D07828E6
:100F30000DD14DE0A1690B988847054625283FF45F
:100F400069AFE1690B9888476D1C3FF46AAFB3E065
:100F500023466A466FF001000B99AFF300809EE0D4
:100F600045F040006060A80723464FF0000236D4E9
:100F70003EE0E8077FF447AF2068011D216000686C
:100F8000290501D506701BE7290701D5068017E75B
:100F9000A90703D5F117C0E9006111E706600FE763
:100FA00045F040006060A80723464FF0080216D4C1
:100FB0001EE040F60E0125EA0100606016E045F0F3
:100FC00040006060A80723464FF00A0207D40FE0F4
:100FD00045F040006060A80708D5234610226FF056
:100FE00001000B99AFF3008059E007E0234610227F
:100FF0006FF001000B99FFF721FA50E04FF0000964
:101000004F464B46632802D05B2806D040E0E806F6
:1010100001D40120A06001273AE062690121019812
:1010200090475E2805D14FF0010962694946019851
:101030009047216939B900210A46534643F82120D7
:10104000491C0829FADBB0B3216969B9C11700EB63
:10105000D16253110AEB830122F01F02821A012090
:101060000B68904003430B6062690121019890472F
:101070005D28E8D1B9F1000F09D00020514651F8A0
:101080002020D24341F82020401C0828F7DB02AB87
:10109000224600976FF001000B99FFF775FA0028C0
:1010A0000CDA401C08D1BBF1000F05D04FF0FF3027
:1010B0000DB0BDE8F08FFFE74046F9E7E90701D141
:1010C00008F1010806444FF0000B79E6CCCCCC0CBB
:1010D0002DE9F05F82460078002715468B460AF11D
:1010E0000104B946302801D09DB113E014F8010B7A
:1010F0000127782803D0582801D045B10AE00DB166
:10110000102D07D10027102514F8010B02E0082547
:1011100000E00A250026B0460EE005FB080005FBAE
:1011200006F1012701EB10461FFA80F8B6F5803F63
:1011300000D3B94614F8010B2946FFF7F5FC002847
:10114000EBDABBF1000F05D00FB1641E00E054468E
:10115000CBF80040B9F1000F06D006F087FB022162
:101160000160C81EBDE8F09F48EA0640FAE770B586
:101170008C1810F8015B15F0070301D110F8013B42
:101180002A1106D110F8012B03E010F8016B01F8C9
:10119000016B5B1EF9D12B0705D40023521E0DD421
:1011A00001F8013BFAE710F8013BCB1A921C03E06F
:1011B00013F8015B01F8015B521EF9D5A142D8D3A7
:1011C000002070BD10B5034633B907480078401CB5
:1011D000054C2070002010BD0A2902DD0020024CC1
:1011E00020704FF0FF30F6E79D01002070B50446F7
:1011F0000D4604A006F016FB002229462046FFF704
:10120000E1FF70BD696E2E0D0A00000070B5044646
:101210000D4604A006F006FB002229462046FFF7F3
:10122000D1FF70BD696E2E0D0A00000070B5044636
:101230000D4604A006F0F6FA002229462046FFF7E4
:10124000C1FF70BD696E2E0D0A00000070B5044626
:101250000D4604A006F0E6FA002229462046FFF7D4
:10126000B1FF70BD696E2E0D0A00000070B5044616
:101270000D4604A006F0D6FA002229462046FFF7C4
:10128000A1FF70BD696E2E0D0A00000070B5044606
:101290000D4604A006F0C6FA002229462046FFF7B4
:1012A00091FF70BD696E2E0A0000000070B5044603
:1012B0000D4604A006F0B6FA002229462046FFF7A4
:1012C00081FF70BD696E2E0D0A00000070B50446E6
:1012D0000D4604A006F0A6FA002229462046FFF794
:1012E00071FF70BD696E2E0D0A00000070B50446D6
:1012F0000D4604A006F096FA002229462046FFF784
:1013000061FF70BD696E2E0D0A00000070B50446C5
:101310000D4604A006F086FA002229462046FFF773
:1013200051FF70BD696E2E0A000000002DE9F84FD4
:10133000054689461646002700244FF0FF3A4FF431
:1013400080614B48FEF7FBFFA04686E00A200BF0C9
:1013500019F805F0EDF900240020009012E09DF846
:10136000000078B140F2FF30844206D29DF80020A0
:101370002046641C3E490A5404E021463DA006F084
:1013800051FA04E0684604F03DFF0128E7D000BFB1
:101390000020374908553BA13548FEF7DBFF0746DB
:1013A00017B14FF0FF3A5BE049463148FEF7D2FFF4
:1013B0000746002F4DD04FF0000A002D48D033A132
:1013C0002846FEF7C7FF20B1294805F0B5F9824647
:1013D0003EE031A12846FEF7BDFF18B1244805F0D4
:1013E00097FB35E02EA12846FEF7B4FF18B1204840
:1013F00005F0E6F92CE02DA12846FEF7ABFF18B169
:101400001B4805F0EBFB23E02AA12846FEF7A2FFCC
:1014100018B1174805F0AEFB1AE027A12846FEF7E1
:1014200099FF20B1124805F015FC824610E025A175
:101430002846FEF78FFF18B10D4805F089FC07E03C
:1014400022A12846FEF786FF10B1094805F080FC6E
:1014500006E008F10A001FFA80F8B045FFF676AF03
:1014600000BF1DA006F0DEF95046BDE8F88F000071
:10147000C09F0020636E743D25642C6572726F728C
:101480002E0D0A004552524F5200000041542B438A
:10149000475245470000000041542B435351000080
:1014A00041542B51434349440000000041542B4711
:1014B000534E00004154490041542B51495354416B
:1014C0005445000041542B515454530041542B5166
:1014D00057545453000000000D0A00002DE9F84F46
:1014E000054689461646002700244FF0FF3A4FF480
:1014F00080612B48FEF723FFA04647E064200AF0F6
:1015000041FF05F015F900240020009012E09DF83D
:10151000000078B140F2FF30844206D29DF80020EE
:101520002046641C1E490A5404E021461DA006F012
:1015300079F904E0684604F065FE0128E7D000BFB1
:101540000020174908551BA11548FEF703FF074661
:1015500017B14FF0FF3A1BE049461148FEF7FAFE7B
:1015600007467FB14FF0000A5DB114A12846FEF78F
:10157000F1FE30B10A4914A006F054F9084805F00C
:1015800061F905E008F164001FFA80F8B045B5DBA9
:1015900000BF14A006F046F95046BDE8F88F0000E1
:1015A000C09F0020636E743D25642C6572726F725B
:1015B0002E0D0A004552524F5200000041542B514B
:1015C00043454C4C3F0000003C4543323030532DE6
:1015D0003E4350553E2D2D2D2D3E41434B3D257311
:1015E000000000000D0A000070B505460E461EA062
:1015F00006F018F92248007820F001002049087010
:1016000004F0D6FD1FA006F00DF904F0DDFD23A0C7
:1016100006F008F9002422E02548008982B2002360
:1016200024A125A001F09CFC80B925A006F0FAF8C1
:1016300027480078401C264908701148007820F09F
:101640000100401C0E490870002070BD21A006F06A
:10165000E9F84FF47A700AF095FE601C44B2052C4C
:10166000DADB4FF0FF30F0E7726573657420456395
:1016700032303073206D6F64756C650D0A000000A8
:10168000949F00204472765F456332303073506F10
:101690007765724F66660D0A000000004472765F3F
:1016A000456332303073506F7765724F6E0D0A00AC
:1016B000C4D700084F4B000041540D0A0000000041
:1016C0003447207265736574206F6B200D0A00002B
:1016D0009D0100203447207265736574206661693E
:1016E0006C2E0D0A000000002DE9F04F93B08946E2
:1016F00092461F460025AB460026002447F230588C
:1017000000201190402101A8FEF719FE39464846F5
:1017100000F002F9044623463A46494641A006F045
:1017200081F81CB9681E13B0BDE8F08F4FF0FF318F
:10173000494800680BF054FB402101A8FEF7FFFD6B
:1017400046A101A806F07EF804F057FD01A8FEF7B7
:1017500013FE0146009001A804F046FD01A944A033
:1017600006F060F823E032200AF00CFEA8F1320007
:101770001FFA80F80AE040F2FF30854206D29DF859
:1017800048202846691C8DB23C490A5412A804F02E
:1017900039FD0128EFD004F11C00A84207D8012030
:1017A00011902246294636A006F03CF802E0B8F136
:1017B000000FD8D100BF284800680BF001FA2F4B6A
:1017C0004246294634A006F02DF81198002821D071
:1017D00009233AA22946294807F0D4FC06469EB1BF
:1017E000093606EB040B594637A006F01BF8062213
:1017F00037A15846FEF7D4FD30B92246314650464F
:10180000FEF776FD20468EE733A006F00BF84FF08A
:10181000FF3088E739A0119906F004F84FF0FF3047
:1018200081E7000066696C654F6666736574203DEC
:101830002025642C20676574646174614C656E209A
:101840003D2025642C2067657453697A65203D200E
:1018500025640D0A00000000A001002041542B5116
:1018600048545450524541443D38300D000000006A
:10187000636D64203D2025730D0A0000C09F002089
:1018800069203D2025642C67657453697A65203D85
:101890002025640D0A00000069203D2025642C7479
:1018A0006D6F203D2025642C202067657444617491
:1018B00061203D2025730D0A00000000434F4E4E6D
:1018C0004543540D0A000000703D25730D0A0000C9
:1018D0000D0A4F4B0D0A0000705F636F6E6E6563FB
:1018E00074203D3D204E554C4C2C20207265747563
:1018F000726E204641494C3B0D0A0000666C6167E0
:101900003D25642C202072657475726E2046414915
:101910004C3B0D0A000000002DE9F04393B0054652
:101920000E46002400270020119042F2107840213A
:1019300001A8FEF704FD611E274800680BF050FA6D
:10194000402101A8FEF7FBFC33462A4623A101A84B
:1019500005F078FF04F051FC01A8FEF70DFD81466B
:10196000494601A804F040FC29E032200AF00AFDB3
:10197000A8F132001FFA80F80AE040F2FF308442FA
:1019800006D29DF848202046611C8CB21A490A54A0
:1019900012A804F037FC0128EFD0112317A221462A
:1019A000154807F0EFFB071E09D0394618A005F0CF
:1019B00039FF11AA18A13846FEF724FD02E0B8F15C
:1019C000000FD2D100BF044800680BF0F9F811985D
:1019D00013B0BDE8F0830000A001002041542B515A
:1019E0004854545047455445583D36302C25642CB6
:1019F00025640D0A00000000C09F00202B514854B0
:101A000054504745543A20302C3230362C000000D8
:101A1000703D25730D0A00002B5148545450474522
:101A2000543A20302C3230362C2564002DE9F04118
:101A300092B08046002400250020109042F21076DB
:101A400040216846FEF77BFC611E234800680BF0CE
:101A5000C7F922A1684605F0F5FE04F0CEFB684602
:101A6000FEF78AFC07463946684604F0BDFB28E0CD
:101A700032200AF087FCA6F1320086B20AE040F27A
:101A8000FF30844206D29DF844202046611C8CB26F
:101A900016490A5411A804F0B5FB0128EFD0112310
:101AA00013A22146114807F06DFB051E09D02946F7
:101AB00014A005F0B7FE10AA14A12846FEF7A2FC58
:101AC00001E0002ED4D100BF034800680BF078F885
:101AD000109812B0BDE8F081A001002041542B51B4
:101AE000485454504745543D38300D00C09F0020A5
:101AF0002B51485454504745543A20302C32303002
:101B00002C000000703D25730D0A00002B51485435
:101B100054504745543A20302C3230302C25640044
:101B20002DE9F14FB0B0402120A8FEF708FC0020BD
:101B30001F901E901D900025814600241C90804619
:101B400000268246A5201B9001273098FEF714FC42
:101B500080B21A90002019901890542103A8FEF723
:101B6000EEFB012001F05AFAF548407820F03800E9
:101B70000830F3494870309818B9601E31B0BDE89C
:101B8000F08F402120A8FEF7DAFB3098FEF7F4FB37
:101B900083465A46EBA120A805F054FE41F2883254
:101BA000EDA120A801F015FA41F28832ECA130989D
:101BB00001F00FFA00201F9000BFE1484078C0F309
:101BC000800050B1E7A005F02DFEDD48407820F000
:101BD0000400DB494870082749E11F98411CC9B23D
:101BE0001F91052804DBE6A005F01CFE01273EE15D
:101BF0003098FFF71BFF1E90E7A01E9905F012FE1C
:101C00001E9818B9E8A005F00DFED6E7002340F6AF
:101C1000B832D3A1EAA001F0A3F9EDA01F9905F015
:101C200001FE80201D9000244FF0000900201C9030
:101C30001CE132200AF0A6FBC1484078C0F38000C6
:101C400050B1EBA005F0EEFDBD48407820F0040057
:101C5000BB49487008270AE10020199014E04FF4AE
:101C60008061E948FEF76BFB04F0C7FAE64A494693
:101C70001D9B3098FFF738FD0546681C00B106E053
:101C80001998401CC0B2199019980A28E7DB00BFC8
:101C9000002D76DD1C9810B1022873D140E054224B
:101CA000D94903A8FEF724FB9DF80C00AA2803D10C
:101CB0009DF80D00552807D0D34842780178D3A06D
:101CC00005F0B0FD0227D2E009220DF12E01D7A0C8
:101CD000FEF759FBE0B1D8A10DF12E00FEF73AFB5B
:101CE000B0B102201C904FF401701D9000244FF001
:101CF0000008BDF85220DDF84E100DF12E03CFA0E4
:101D000005F090FD4FF44431D94802F021FA05E086
:101D100015A9D8A005F086FD0327A8E0A9449DE0F9
:101D20000020029001904FF40071B74804F0A4FB2A
:101D300080B20290B44890F801020190B24890F845
:101D40000012019841EA002001901898411CC9B284
:101D500018910A2804DBCCA005F064FD012786E079
:101D6000DDE90101884273D1002018906019001F3D
:101D7000DDF84E10884206D3DDF84E00A0EB040AD1
:101D800003E06CE069E0A5F1040A002605E09E4846
:101D9000805D40441FFA80F8761C5645F7D32A1F11
:101DA000B3482118984803F0C3FE074627B9BDA0E1
:101DB00005F038FD04275AE0544464206043DDF800
:101DC0004E10B0FBF1FB23465246BCA0CDF800B04C
:101DD00005F028FDDDF84E00A04237D1BDF85200D5
:101DE00040452AD142462146C14805F01BFD4FF02F
:101DF000000B0020009000260DE004F099FC9C48A8
:101E000031180122684602F0D3FF9DF800005844C3
:101E10001FFA80FB761CA642EFD3C34506D042468C
:101E20005946B4A005F0FEFC062720E00122BD497A
:101E30001BA803F07DFE002706E0BDF852204146B6
:101E4000B9A005F0EFFC062711E001E0A94403E08A
:101E5000C0A0189905F0E6FC00E000BF06E02A46A5
:101E6000C5A01F9905F0DEFC052700E0E1E640F67D
:101E7000B8300AF087FACE48B0F80B004FF6FF7181
:101E8000884203D10020CA49A1F80B00C848B0F825
:101E90000D004FF6FF71884203D10020C449A1F81C
:101EA0000D00082F0ED12648407820F03800203051
:101EB00023494870BE48B0F80D00401CBC49A1F849
:101EC0000D002DE0012F0ED11D48407820F0380084
:101ED00018301B494870B648B0F80D00401CB44992
:101EE000A1F80D001CE077B91548407820F03800C3
:101EF000103013494870AE48B0F80B00401CAC4994
:101F0000A1F80B000CE00E48407820F038000C4996
:101F10004870A748B0F80D00401CA549A1F80D0075
:101F2000002340F6B8320EA125A001F019F80020D8
:101F300001F074F839469FA005F074FC78B21DE6F4
:101F4000949F002041542B514854545055524C3DBD
:101F500025642C38300D0000434F4E4E454354004D
:101F60004F4B00003D3D3D3D7265636576652073D6
:101F7000746F70204854545020636D642E0D0A0015
:101F800075706772616465206661696C2C6578693B
:101F9000742E0D0A0000000066696C652073697A72
:101FA000653D2564200D0A002B2B2B2B2B66696CBD
:101FB0006553697A65206572726F722E0D0A000092
:101FC00041542B514854545053544F500D0000006D
:101FD000737461727420687474702072657472799D
:101FE00054696D6573203D202564200D0A000000B2
:101FF0007265636576652073746F70204654502057
:10200000636D642E0D0A0000C09F00204854545098
:10201000206765742068656164203D253032782C26
:10202000253032782C6572720D0A000056312E3040
:102030002E302D5331000000533100006677206EA2
:10204000616D65206F6B2C20746F74616C467753E3
:10205000697A653D25642C20636865636B53756DF3
:102060003D25642C2066775665723D25732E0A0047
:10207000001003086677206E616D653D25732C6541
:1020800072720D0A00000000687474702075706729
:1020900072616465206661696C2C657869742E0DC7
:1020A0000A00000057726974654669726D77617243
:1020B00065206572726F720D0A000000485454501A
:1020C00020746F74616C3D25642C67657444617481
:1020D00061436E743D25642C6765744C656E3D25C7
:1020E000642D2D2D5B256425255D2E0D0A00000035
:1020F00078DE0008666C61736820636865636B2036
:102100006572726F722C7265616453756D3D3078C3
:102110002530782C667753756D3D30782530780DF5
:102120000A0000000020060863616C63756C61742E
:102130006553756D3D25642C61637475616C4368EE
:1021400065636B73756D3D25642C6572726F722EBD
:102150000D0A000052657643726320213D205465CC
:102160006D704372632C207265747279636E742093
:102170003D202564200D0A004854545020676574A2
:102180002064617461206572726F722C7265747262
:102190007954696D6573203D2025642C2020676586
:1021A00074446174614C656E203D2025640D0A0005
:1021B000C0A3002068747470207265736C75743DE0
:1021C00025642E0D0A00000010B5B0B00446802131
:1021D00010A8FEF7B4F840216846FEF7B0F8224692
:1021E00011A1684605F02EFB224613A110A805F0A8
:1021F00029FB10AA694614A005F014FB002341F244
:102200008832694610A800F0ABFE30B9214615A00F
:1022100005F008FB002030B010BD214619A005F0E4
:1022200001FB4FF0FF30F6E72B514D54434C4F5319
:10223000453A2025642C300041542B514D54434CD9
:102240004F53453D25640D00636D645F61636B3DD5
:1022500025732C20636D645F7265713D25732E0AB2
:10226000000000004D515454206C696E6B202564B1
:1022700020636C6F736520737563636573730D0AF8
:10228000000000004D515454206C696E6B20256491
:1022900020636C6F7365206661696C7572652E0DC5
:1022A0000A000000F0B5ADF5137D04460D46164654
:1022B0001F464FF4007113A8FEF741F8402103A810
:1022C000FEF73DF812A103A805F0BCFA2B46224602
:1022D00010A113A8CDE9006705F0B4FA13AA03A969
:1022E00014A005F09FFA002341F2883203A913A835
:1022F00000F036FE30B916A005F094FA00200DF576
:10230000137DF0BD18A005F08DFA4FF0FF30F6E711
:102310004F4B000041542B514D54434F4E4E3D25E1
:10232000642C222573222C222573222C2225732231
:102330000D000000636D645F61636B3D25732C20AD
:10234000636D645F7265713D25732E0A00000000A5
:102350004D51545420636F6E6E65637420737563C2
:10236000636573732E0D0A004D51545420636F6ED4
:102370006E656374206661696C7572652E0D0A0066
:102380002DE9F04106460F460024544800780928FC
:102390007DD2DFE800F0053241499E6B9E859100B9
:1023A000002510E04E49D1F80123087801F281217F
:1023B00000F0F8F9044624B94FF4FA7009F0E2FF8E
:1023C00003E0681CC5B2052DECDB00BF1CB9012081
:1023D0004249087002E008204049087041480178ED
:1023E0000078401C3F4A1070062905DB08203B4955
:1023F00008700020114608706CE000F059FA38B9F6
:102400000320364908704FF4FA7009F0BBFF02E070
:102410000020324908705DE031490878FFF7D4FEAA
:1024200000202E49087055E02D49087801F28533C7
:1024300001F2053201F20121FFF734FF044674B9BD
:1024400029A005F0EFF901202E4981F83B02052073
:10245000224908704FF4FA7009F094FF05E02AA0B1
:1024600005F0E0F902201D49087033E01C490878A6
:1024700001F28112813100F06DFB044644B907205E
:10248000164908704FF4FA7009F07CFF07E020E06D
:102490001349087800F05AF802201049087019E032
:1024A00000200E4908701E480078401C1C49087026
:1024B00000200C4908700DE00020084908701849F8
:1024C000087018A005F0AEF94FF4FA7009F05AFF41
:1024D00000E000BF00BF0020BDE8F081AA0100209D
:1024E000CFA30020AB010020636F6E6E6563742084
:1024F00073657276657220737563636573730D0A15
:10250000000000003C9D0020636F6E6E65637420C8
:10251000736572766572206661696C0D0A00000051
:102520009D0100206D71747420636F6E6E6563741D
:10253000206661696C2C20726573657420344720B5
:102540006D6F64756C652E0A0000000010B5B0B0A8
:102550000446802110A8FDF7F2FE40216846FDF7F1
:10256000EEFE224610A1684605F06CF9224612A143
:1025700010A805F067F910AA694613A005F052F9F2
:10258000002341F28832694610A800F0E9FC28B91E
:1025900014A005F047F9002030B010BD18A005F0D8
:1025A00041F94FF0FF30F7E72B514D544449534365
:1025B0003A2025642C30000041542B514D5444499D
:1025C00053433D25640D0000636D645F61636B3DA3
:1025D00025732C20636D645F7265713D25732E0A2F
:1025E000000000004D51545420646973636F6E6E97
:1025F00065637420737563636573730D0A0000006F
:102600004D51545420646973636F6E6E656374201A
:102610006661696C7572652E0D0A000010B50020A8
:102620002C4908702C4A2DA12A48401C05F00AF9B3
:10263000294A2DA12F4805F005F9274A2EA12D483A
:10264000803805F0FFF8244A2EA12A48803005F092
:10265000F9F8802220492E48FDF74AFE2D4A21A193
:102660002B48803005F0EEF81B48D0F800021949DD
:10267000C1F80103184A80321AA1274805F0E2F890
:10268000244A803A17A12448803005F0DBF811492C
:10269000491C22A005F0C6F81649803925A005F08E
:1026A000C1F81B4929A005F0BDF8194980312CA0BB
:1026B00005F0B8F80748D0F801132EA005F0B2F8DD
:1026C00015492FA005F0AEF81349803130A005F070
:1026D000A9F810BDCFA300203C9D002079612F6395
:1026E0007265712F2573000079612F637265732FF6
:1026F00025730000D0A4002079612F737265712FBB
:102700002573000079612F737265732F25730000A4
:10271000D0A50020BC9E0020D4A60020746F706954
:10272000635F7075625F726571203D2025732E0AAC
:1027300000000000746F7069635F7375625F72659B
:1027400071203D2025732E0A00000000636C69652E
:102750006E745F6964203D2025732E0A000000001E
:10276000686F73745F6E616D65203D2025732E0A5E
:1027700000000000706F7274203D2025642E0A0056
:10278000757365726E616D65203D2025732E0A009C
:1027900070617373776F7264203D2025732E0A0A6F
:1027A0000000000070B5B2B004460D461646802108
:1027B00012A8FDF7C4FD402102A8FDF7C0FD224686
:1027C00013A102A805F03EF82B46224614A112A838
:1027D000009605F037F812AA02A917A005F022F812
:1027E000002344F6206202A912A800F0B9FB40B908
:1027F00033462A46214617A005F014F8002032B0CF
:1028000070BD214621A005F00DF84FF0FF30F6E72E
:102810002B514D544F50454E3A2025642C3000002A
:1028200041542B514D544F50454E3D25642C22258B
:1028300073222C25640D0000636D645F61636B3D42
:1028400025732C20636D645F7265713D25732E0ABC
:10285000000000005B494E464F5D204D515454200E
:102860006C696E6B202564206F70656E20737563D4
:10287000636573732C6970616464723D25732C7099
:102880006F72743D25642E0D0A0000005B494E46B0
:102890004F5D204D515454206C696E6B202564208F
:1028A0006F70656E206661696C7572652E0D0A0029
:1028B00000B5B1B0802111A8FDF741FD402101A86C
:1028C000FDF73DFD10A101A804F0BCFF0FA111A868
:1028D00004F0B8FF11AA01A910A004F0A3FF00237F
:1028E00041F2883201A911A800F03AFB28B912A0E0
:1028F00004F098FF002031B000BD15A004F092FF55
:102900004FF0FF30F7E700004F4B000041542B51D0
:102910004D544F50454E3F0D00000000636D645F05
:1029200061636B3D25732C20636D645F7265713D3F
:1029300025732E0A000000004D515454206F70651D
:102940006E20737563636573732E0D0A00000000BB
:102950004D515454206F70656E206661696C7572BC
:10296000652E0D0A000000002DE9F047A8B0824650
:102970000E4614461F46802108A8FDF7E0FC002003
:10298000049005900690079000258046814614B972
:102990004049088004E03F480088401C3D490880C9
:1029A0003D48407820F00100401C3B4948704FF002
:1029B000FF313A4800680AF013FA4FF000084BE084
:1029C00035480078C0F3800020B135A004F02AFF1C
:1029D000002544E03CA104A804F034FF6FB93B4853
:1029E000CDE90049CDE90206401E02782948038856
:1029F00037A108A804F026FF0FE0012F0DD13D48B4
:102A0000CDE90049CDE90206A0F201100278214883
:102A100003882FA108A804F015FF00234FF47A7251
:102A200035A108A800F09CFA05461DB133A004F0BA
:102A3000F9FE0DE043F6982304AA3146504600F013
:102A4000ADFA05461DB934A004F0ECFE07E000BF66
:102A500008F1010000F0FF08B8F1030FB0DB00BF80
:102A60000E4800680AF0ACF80B48407820F00100EE
:102A70000949487055B12EA004F0D4FE06480078EC
:102A800020F002000449087000F052FB284628B0EC
:102A9000BDE8F087A8010020949F0020A00100203D
:102AA00046545020446F776E6C6F6164696E672C7A
:102AB00020646F206E6F742073656E64206461748F
:102AC000612E0D0A000000004F4B0000D0A3002033
:102AD00041542B514D5450554245583D25642C25A9
:102AE000642C25642C25642C222573222C25640D4E
:102AF00000000000D0A400203E0000006D7174743E
:102B00002073656E6420636D64206E6F742072653F
:102B10006376203E2E0D0A00454332303053207339
:102B2000656E6420737563636573732E0D0A000010
:102B300073656E642064617461206572726F722CBB
:102B4000207265636F6E6E656374206D7174742E90
:102B50000D0A000070B5B2B004460D46164680213D
:102B600012A8FDF7ECFB402102A8FDF7E8FB14A139
:102B700002A804F067FE2B46224612A112A8009676
:102B800004F060FE12AA02A916A004F04BFE002376
:102B900044F6206202A912A800F0E2F938B93246E0
:102BA000294617A004F03EFE002032B070BD324628
:102BB00029461BA004F036FE4FF0FF30F5E7000079
:102BC0004F4B000041542B514D545355423D256409
:102BD0002C312C222573222C312C222573222C31CE
:102BE0000D000000636D645F61636B3D25732C20F5
:102BF000636D645F7265713D25732E0A00000000ED
:102C00004D5154542073756220746F7069633D2573
:102C10007320257320737563636573730D0A000059
:102C20004D5154542073756220746F7069633D2553
:102C3000732025736661696C7572652E0D0A00003C
:102C400070B504460D4604A004F0ECFD00222946B0
:102C50002046FEF7B7FA70BD696E2E0A000000002C
:102C600070B504460D4604A004F0DCFD00222946A0
:102C70002046FEF7A7FA70BD696E2E0A000000001C
:102C800070B504460D4604A004F0CCFD0022294690
:102C90002046FEF797FA70BD696E2E0A000000000C
:102CA00070B504460D4604A004F0BCFD0022294680
:102CB0002046FEF787FA70BD696E2E0A00000000FC
:102CC00070B504460D4604A004F0ACFD0022294670
:102CD0002046FEF777FA70BD696E2E0A00000000EC
:102CE00070B504460D4604A004F09CFD0022294660
:102CF0002046FEF767FA70BD696E2E0A00000000DC
:102D000070B504460D4604A004F08CFD002229464F
:102D10002046FEF757FA70BD696E2E0A00000000CB
:102D200010B50C4800680A2801D9002010BD0A48D7
:102D3000407800F0010020B108A004F073FD0020ED
:102D4000F4E7002342F210720AA10BA000F01AF877
:102D50000020EBE7A4010020949F0020456332305F
:102D600030732069732073656E6420646174612E12
:102D70000D0A00004F4B000041542B5143454C4C71
:102D80003F0D00002DE9F04104460D4616461F4652
:102D90004FF0FF31094800680AF022F84FF00108AF
:102DA0003B4632462946204604F0EBFC8046034869
:102DB000006809F005FF4046BDE8F081A001002051
:102DC00070B500254DA004F02DFD0020534981F879
:102DD0003B0281F83A0252480078C0F3400028B123
:102DE0004F48007820F002004D49087000204D49FE
:102DF000087082E04B49097801EB81014A4A02EBF5
:102E00008101C86809F0BEFA4648007800EB8000EE
:102E1000454951F82000C8B1424B1B7803EB8303AE
:102E20000E4606EB83031B899AB23E4B1B7803EBDD
:102E3000830306EB830359683A4B1B7803EB830348
:102E400056F82300002300F08BF844B23548007890
:102E500000EB8000344901EB8000006970B131481B
:102E6000007800EB800001EB8000294602692046D3
:102E7000904708B9002501E0681CC5B229480078D0
:102E8000142815D12648007820F00200801C24491F
:102E900008700846007820F080008030087023A079
:102EA00004F0C0FC01201D4981F83B02002070BDE8
:102EB0001C48007808BB24A004F0B4FC1848007833
:102EC0000121B1EBD01F18D124480078401C2349C0
:102ED000087008460078042803DC002011490870B7
:102EE0000BE000200F4908700D48007820F08000AA
:102EF0000B4908700020194908707BE7456E74651E
:102F0000722041627374725F456332303073526570
:102F1000636F6E6E6563740D0A0000003C9D0020B7
:102F2000949F00209D010020C4D7000845633230E3
:102F3000307320636F6E6E656374207375636365B1
:102F400073730D0A000000004770727320636F6E88
:102F50006E656374206661696C0D0A00AC01002027
:102F60002DE9F04104460D4616461F464FF0FF314D
:102F70000948006809F034FF4FF001083B4632462B
:102F80002946204604F025FC80460348006809F0E5
:102F900017FE4046BDE8F081A00100202DE9F04178
:102FA00006460F4614461D464FF001083946304686
:102FB00003F01AF904B115B90020BDE8F0812A46E2
:102FC00021460020FEF7B2F908B94FF0000840464C
:102FD000F3E72DE9F04105460E4617460024A046CA
:102FE00000BF0FE000233A4631462846FFF7B8FFFE
:102FF00010B94FF0010807E04FF4C87009F0C2F9AA
:10300000601CC4B20A2CEDDB00BFB8F1000F03D185
:103010004FF0FF30BDE8F0810020FBE738B10749F1
:10302000497821F00201891C044A517005E00349E6
:10303000497821F00201014A51707047949F0020A5
:1030400010B50948407800F0010020B107A004F055
:10305000E9FB002010BD002341F2883209A10AA03B
:10306000FFF77EFF0020F5E7949F00204563323094
:1030700030732069732073656E6420646174612EFF
:103080000D0A00004F4B000041542B4353510D00DB
:10309000042009F0F5FB0E490860FFF7BFFA16E0BF
:1030A000FFF78EFE11E042F210720121002008F0BD
:1030B000BFFE022000F018F818B1FFF7C1FF20B1E1
:1030C00004E004A004F0AEFB00E0ECE700BFE7E79B
:1030D000A001002047707273207265636F6E6E6589
:1030E00063742E0D0A000000024600210F4800788C
:1030F00000F0010008B141F001010C480078C0F374
:10310000400008B141F0020108480078C0F3800097
:1031100008B141F0100105484078C0F3400008B103
:1031200041F0200101EA020070470000949F002056
:1031300008B50648006840B1002002230246014657
:1031400000900248006809F003FF08BD0400002059
:103150003EB5012418E0601E00EB40100C4901EB65
:103160004005601E694602F0FBFE95F8280048B154
:103170009DF8000030B1002085F82800002120468D
:1031800001F022FE601CC4B2042CE4DD3EBD000050
:10319000408B002070B50546681E00EBD071C1F36E
:1031A00047040021524A42F8201000EBD071491028
:1031B000A0EB410101BB0020C4EBC4014D4A02EB6E
:1031C000C1014860C4EBC40102EBC101C860C4EB9B
:1031D000C40102EBC1014861C4EBC40102EBC101AF
:1031E000C861C4EBC40102EBC1014862C4EBC40175
:1031F00002EBC101C8621FE00020C4EBC4013D4ADC
:1032000002EBC1010860C4EBC40102EBC10188609C
:10321000C4EBC40102EBC1010861C4EBC40102EBC1
:10322000C1018861C4EBC40102EBC1010862C4EBB7
:10323000C40102EBC1018862C4EBC4012D4A02EB58
:10324000C1003821FDF77BF800202B490870487039
:1032500088705520C8701A21204602F097FD04207E
:10326000254988700020C8701821204602F08EFD84
:10327000681E00EBD0714910A0EB410121B90B2170
:10328000204602F03BFD03E00A21204602F036FD15
:10329000002019498870C8701821204602F076FD78
:1032A0001020154988700020C8701821204602F0AF
:1032B0006DFD4020104988700020C8701B212046F9
:1032C00002F064FD07200C4988704E20C870102160
:1032D000204602F05BFD1E21204602F057FD002033
:1032E00005498870C8701821204602F04FFD70BD56
:1032F0002C9D00208E9C00207001002010B541F60E
:10330000AD402649088046F65E302549088044F2E3
:10331000E7202449088046F662302349088041F6B8
:10332000C4402249088041F6AB00214908800020B2
:1033300020490870487088705520C8701A210020F4
:1033400002F024FD1A21012002F020FD002019497D
:103350000870487088703920C8701721002002F06A
:1033600015FD1721012002F011FD00201149887080
:10337000C8701A2102F00AFD1A21012002F006FD90
:10338000002404E02046FFF705FF601CC4B2022CB5
:10339000F8DB01200849087010BD0000780100200A
:1033A00076010020740100207A0100207C010020B9
:1033B0007E01002070010020800100200021D0F853
:1033C000EF2140F2DC539A420ED2D0F8EF21642371
:1033D000B2FBF3F300F14F0202EB03129268D0F854
:1033E000EF3102FB03F107E0B0F815204FF4FA7358
:1033F0005A43642392FBF3F1D0F8E6218A4201D8C4
:1034000003220273704700002DE9F0412DED0E8B71
:1034100084B000270024002600F074FF80460125B8
:1034200003E1681E00EB4010844901EB4006681E72
:10343000C0EBC001C1EB402081494418681E01A9BE
:1034400002F08EFDA07800287DD0A27829467DA0CC
:1034500004F0E8F99DF8040000F0010010B1042028
:1034600020731BE09DF8040000F0020010B105205D
:10347000207313E09DF8040000F0040010B1062052
:1034800020730BE09DF8040040B9207B092805D18A
:10349000BDF805102246284601F076FB207B09285E
:1034A00022D1BDF805000A2190FBF1F040F2DC5179
:1034B000884207DB07202073BDF80520294668A055
:1034C00004F0B0F9BDF805000A2190FBF1F00744C3
:1034D00041F65830874207D3BDF80520294666A03B
:1034E00004F0A0F908202073207B092806D0217B56
:1034F00068A004F097F9284602F098F9D6F81E0063
:10350000A8EB00003C287CD3C6F81E8054F80D0FB1
:10351000401C2060BDF80500FDF73BFA41EC1E0B96
:103520009FED610B53EC102BFDF752F941EC1D0B95
:103530009FED5D0B53EC102BFDF7BCF941EC1C0B20
:103540009FED5B0B00E065E053EC102BFDF7B2F94B
:1035500041EC1B0B9FED580B53EC102BFDF7AAF918
:1035600041EC190BD4F8E6110846FDF71FFA41ECBF
:103570001A0B53EC192BFDF784F841EC180BFDF7EF
:1035800028FAC4F8E601D4F8E60100EE100ABCEE11
:10359000C00A10EE100A208154F80D09022817D92C
:1035A000BDF805000A2190FBF1F0D4F8EB110844B6
:1035B000C4F8EB01D4F8EB11D4F80D00801EB1FB78
:1035C000F0F0C4F8EF01D4F8EF113DA004F02AF9AF
:1035D000BDF805000A2190FBF1F0322190FBF1F0DB
:1035E00084F88F0194F88F1104F5C97000EB810005
:1035F0000068401C0A4604F5C97101EB82010860AD
:1036000000E006E094F84A00012809D12046FFF7BF
:10361000D5FE05E00021681E00EBC0002D4A1154C4
:103620000A2008F0AFFE681CC5B2042D7FF7F9AE82
:1036300004B0BDEC0E8BBDE8F0810000408B002093
:1036400038830020706F7274203A25642067756E8D
:1036500043686753746174753A25640D0A0000006D
:10366000706F77657220746F6F206C617267652070
:1036700025642025640D0A006465766963652074FD
:103680006F6F206C617267652025642025640D0AC8
:103690000000000073746F7020726561736F6E209C
:1036A00025640D0A000000009A9999999999B93FEB
:1036B00000000000000059400000000000004E40E3
:1036C0006176657261676520706F776572203A2553
:1036D000640D0A001C8B002001464A1E02EB4212B8
:1036E000054B03EB42004FF49672A0F82F204FF4E5
:1036F0006162A0F831207047408B002070B5D2B0D5
:103700000546C5EBC500C0EB4520204944182021E3
:103710004AA8FCF714FE4FF480710AA8FCF70FFECC
:103720004FF480710AA8FCF70AFE142204F130015C
:103730004BA8FCF7DDFD20784A900120509060688E
:103740005190FE220DF12A01684607F047F8142235
:10375000694605A8FCF7CCFD4AAA0D4905A806F064
:1037600015FD064666B10BA00088ADF82800089844
:10377000801C81B2002301220AA8FFF7F5F802E0BD
:1037800005A004F04FF852B070BD0000388300204F
:1037900040DB00083034000072656D6F7465206393
:1037A000686172676520656E636F64652066616934
:1037B0006C0D0A0030B5ADF5177D04464FF400716D
:1037C00017A8FCF7BCFD30210BA8FCF7B8FD4FF49F
:1037D000007117A8FCF7B3FD1422E11C0CA8FCF73C
:1037E00087FD606F1690D4F81B001390D4F8170073
:1037F000129020780B90A0781190D4F82300D4F880
:103800001F10401A1490606B022806D3606B801E54
:10381000C0EB00108000159001E0002015904FF4DF
:10382000FF720DF15E0101A806F0D8FF142201A974
:1038300006A8FCF75DFD0BAA114906A806F0A6FC38
:103840000546B5B1DDE91510CDE900010CAB0D4819
:10385000119A0B9903F0E6FF0BA00088ADF85C000D
:103860000998801C81B20023012217A8FFF77CF879
:1038700002E006A003F0D6FF0DF5177D30BD000075
:10388000A0DA0008F0DF00083036000072656D6FC6
:1038900074652063686172676520656E636F646537
:1038A000206661696C0D0A0086B00027002500269D
:1038B000012008F0E5FF25490860002001F0AAFA80
:1038C00042E0642008F05EFD00F01CFDC01B39D012
:1038D00000F018FD07461E480078012806D1002098
:1038E0001B49087001F0BAFF00F01CFC002504E041
:1038F000284600F04BF8681CC5B2022DF8DB1E20EC
:10390000B6FBF0F100FB1160B8B9002413E003A985
:10391000204602F025FBDDF81300BDF80D10CDE9BF
:103920000010BDF81130BDF80F20611C09A003F094
:1039300079FF601CC4B2042CE9DBFFF765FDFFF7DB
:1039400007FC761C02F0F4FEBBE700006C010020CF
:1039500080010020706F7274203A256420766F6CAD
:103960006174616765203A20256420637572726511
:103970006E74203A256420706F776572203A256452
:1039800020656C6563203A25640D0A007FB5044606
:103990000026204602F0F6FA06461EB9FBA003F008
:1039A00041FF7FBD00208DF80F00C4EBC40000EB89
:1039B0008000FD49084480798DF80E00C4EBC400F6
:1039C00000EB8000084440798DF80D00C4EBC40082
:1039D00000EB8000084400798DF80C006421039806
:1039E0004843F2490988B0FBF1F00390C4EBC401ED
:1039F000EF4A02EBC1010398086200208DF80F0026
:103A0000C4EBC40000EB8000E7490844407A8DF81D
:103A10000E00C4EBC40000EB80000844007A8DF86F
:103A20000D00C4EBC40000EB80000844C0798DF8A1
:103A30000C00642103984843DE490988B0FBF1F08B
:103A40000390C4EBC40102EBC1010398486200205B
:103A50008DF80F00C4EBC40000EB8000D24908448D
:103A6000007B8DF80E00C4EBC40000EB800008441E
:103A7000C07A8DF80D00C4EBC40000EB8000084450
:103A8000807A8DF80C00642103984843CA4909885C
:103A9000B0FBF1F00390C4EBC40102EBC101039849
:103AA000886200208DF80F00C4EBC40000EB80009A
:103AB000BD490844807C8DF80E00C4EBC40000EBC7
:103AC00080000844407C8DF80D00C4EBC40000EB7E
:103AD00080000844007C8DF80C000398B0F5000FBE
:103AE00001D3B6480390642103984843B449098838
:103AF000B0FBF1F00390C4EBC401AD4A02EBC1018D
:103B00000398886100208DF80F00C4EBC40000EB1F
:103B10008000A5490844407D8DF80E00C4EBC40028
:103B200000EB80000844007D8DF80D00C4EBC4005C
:103B300000EB80000844C07C8DF80C000398B0F5C1
:103B4000000F01D39D4803906421039848439D4989
:103B50000988B0FBF1F00390C4EBC401944A02EB76
:103B6000C1010398C86100208DF80F00C4EBC400A8
:103B700000EB80008C490844007E8DF80E00C4EBF9
:103B8000C40000EB80000844C07D8DF80D00C4EB3C
:103B9000C40000EB80000844807D8DF80C00C4EB6D
:103BA000C40102EBC10103980969401A07D4C4EBB0
:103BB000C40102EBC10103980969401A07E0C4EB94
:103BC000C4007B4901EBC00000690399401AB0F5BD
:103BD0007F0F2ADAC4EBC401754A02EBC1010398D6
:103BE0008968401A07D4C4EBC40102EBC1010398F1
:103BF0008968401A07E0C4EBC4006D4901EBC000BE
:103C000080680399401A00EB4001C1EBC010C4EB7F
:103C1000C401674A02EBC101096901EBC000C4EBB2
:103C2000C40102EBC10108612CE0C4EBC401604A8D
:103C300002EBC10103988968401A07D4C4EBC401A0
:103C400002EBC10103988968401A07E0C4EBC40085
:103C5000574901EBC00080680399401A6FF07F411B
:103C6000081A00EB4001C1EBC010C4EBC401504A7C
:103C700002EBC101096901EBC000C4EBC40102EB16
:103C8000C1010861C4EBC401494A02EBC1010398B8
:103C90008860C4EBC400114601EBC00080684A494B
:103CA0000988B0FBF1F0C4EBC40102EBC101096863
:103CB0000844C4EBC40102EBC1010860434800683A
:103CC00090B1C4EBC400114601EBC00000683F494D
:103CD0000968401AB0F5967F06D33C480068C4EBEB
:103CE000C40102EBC1010860C4EBC400304901EB20
:103CF000C00000683549086000208DF80F00C4EB53
:103D0000C40000EB800028490844C07E8DF80E00F6
:103D1000C4EBC40000EB80000844807E8DF80D00E9
:103D2000C4EBC40000EB80000844407E8DF80C001A
:103D3000C4EBC4011E4A02EBC10103984969401A51
:103D400007D4C4EBC40102EBC10103984969401ACE
:103D500007E0C4EBC400164901EBC00040690399B9
:103D6000401AB0F57F0F4DDAC4EBC401104A02EBE4
:103D7000C1010398C968401A2AD4C4EBC40102EBFC
:103D8000C1010398C968401A2AE0000072656164A5
:103D900020626C3039333920646174612066616956
:103DA0006C65640D0A000000489C0020760100202C
:103DB0008E9C00207A010020740100200100800008
:103DC000780100207C0100207E0100208C01002071
:103DD000C4EBC400CD4901EBC000C0680399401A90
:103DE00000EB4001C1EBC010C4EBC401C74A02EBB9
:103DF000C101496901EBC000C4EBC40102EBC10180
:103E000048612CE0C4EBC401C04A02EBC101039835
:103E1000C968401A07D4C4EBC40102EBC10103987E
:103E2000C968401A07E0C4EBC400B84901EBC00000
:103E3000C0680399401A6FF07F41081A00EB4001F7
:103E4000C1EBC010C4EBC401B04A02EBC101496927
:103E500001EBC000C4EBC40102EBC1014861C4EB3B
:103E6000C401AA4A02EBC1010398C860C4EBC400B4
:103E7000114601EBC000C068A5490988B0FBF1F00C
:103E8000C4EBC40102EBC10149680844C4EBC4019E
:103E900002EBC10148609F48006890B1C4EBC400C8
:103EA000114601EBC00040689A490968401AB0F514
:103EB000967F06D397480068C4EBC40102EBC101AA
:103EC0004860C4EBC400914901EBC00040689149CF
:103ED0000860ECBB6946012002F042F8C4EBC40064
:103EE0008A4901EBC000806A0A21B0FBF1F080B280
:103EF000ADF80300C4EBC400844901EBC000008CA2
:103F000080B2ADF80500C4EBC40001EBC000008B2B
:103F100080B2ADF80100C4EBC40001EBC000006842
:103F20000A21B0FBF1F07C4949680844CDF807004C
:103F30006946012002F07AF86946002002F010F884
:103F4000C4EBC400714901EBC000806A0A2100E0A3
:103F500027E0B0FBF1F080B2ADF80300C4EBC40081
:103F60006A4901EBC000808C80B2ADF80500C4EB5B
:103F7000C40001EBC000808B80B2ADF80100C4EB3F
:103F8000C40001EBC00040680A21B0FBF1F06249B7
:103F900009680844CDF807006946002002F046F899
:103FA00065E0012C63D16946032001F0D9FFC4EB21
:103FB000C400564901EBC000806A0A21B0FBF1F051
:103FC00080B2ADF80300C4EBC400504901EBC0005F
:103FD000008C80B2ADF80500C4EBC40001EBC0005A
:103FE000008B80B2ADF80100C4EBC40001EBC0004F
:103FF00000680A21B0FBF1F04749C9680844CDF8D0
:1040000007006946032002F011F86946022001F01A
:10401000A7FFC4EBC4003D4901EBC000806A0A2140
:10402000B0FBF1F080B2ADF80300C4EBC400374937
:1040300001EBC000808C80B2ADF80500C4EBC40079
:1040400001EBC000808B80B2ADF80100C4EBC4006E
:1040500001EBC00040680A21B0FBF1F02E498968ED
:104060000844CDF807006946022001F0DFFF002573
:1040700047E06946284601F073FFBDF8050040F6A9
:10408000C41188420FDD2548405D401C2349485536
:104090000846405D0A280FDD9DF8000040F0020050
:1040A0008DF8000008E09DF8000020F002008DF877
:1040B0000000002019494855BDF8030041F288313D
:1040C00088420FDD1648405D401C1549485508469A
:1040D000405D0A280FDD9DF8000040F001008DF8DA
:1040E000000008E09DF8000020F001008DF80000BD
:1040F00000200B4948556946284601F097FF681C87
:10410000C5B2042DB5DB00BF4BE400008E9C00203F
:104110007E010020900100202C9D002085010020C0
:104120008101002000200CE0C0EBC001C1EB402168
:10413000054A1144B1F81510044A42F82010411CF8
:10414000C8B20428F0DB7047388300202C9D002083
:104150002DE9F04704460D464FF00008C146002601
:104160000027B4F1006F03D360191F49884202D3BE
:104170000020BDE8F08704F017FD2FE04FF4006643
:10418000A4F10068B8FBF6F909FB06F000F100673E
:1041900000BF302080F31188BFF34F8FBFF36F8FC4
:1041A00000BF08F001F8384604F088FC40F2053002
:1041B00004F05EFC4FF4417004F05AFC40F202300F
:1041C00004F056FC08F032F8002080F3118800BF9C
:1041D000BC19AD1B05B902E002F0AAFACEE700BF98
:1041E00004F056FC0020C4E70000080830B59FB07A
:1041F0000546681EC0EBC001C1EB402026494418AB
:104200007C216846FCF79BF88DF8005094F84A0032
:104210008DF82F00B4F848000C9000200AE004F557
:10422000C97101EB800109888AB20EA921F810201A
:10423000411CC8B21E28F2DBD4F8EF011D90D4F85F
:104240000D000D90E06ACDF82700E07D8DF80100AB
:104250000020CDF81F00B4F81500CDF823006068E9
:10426000CDF81700207B8DF80200A068CDF81B0068
:104270002078012100F07AF92078002100F0A4FDD7
:10428000142204F130010DF10300FCF731F8684607
:1042900001F00CFC1FB030BD3883002070B5034620
:1042A0005A1EC2EBC205C5EB42220D4D541904F152
:1042B0004F00002210E00A25B1FBF5F50668B54273
:1042C00007D30A25B1FBF5F54668B54201D284F85B
:1042D0008F211030551CEAB2142AECDB70BD0000AF
:1042E00038830020064840888030054A1288811AA9
:1042F000C81701EB5060C011A1EBC01080B270472D
:104300009401002038B507F073FA00906846FCF776
:10431000BFFB0446A0680838A0602046FBF794FF66
:104320000546284638BD000070B586B004460D46E7
:10433000002005902A46214601A806F0BDF905AAED
:10434000084901A805F0DCFA06462EB1059830B9F7
:1043500005A003F067FA02E008A003F063FA06B0D4
:1043600070BD00005CDC00086865617274206265E5
:10437000617420726563760D0A00000064657669D9
:1043800063652073656E64206C6F636174696F6E22
:10439000206661696C0D0A002DE9F041ADF5A76D4D
:1043A00000264FF4806149A8FBF7C9FF4FF48071E4
:1043B00006A8FBF7C4FF12AD4FF4806149A8FBF7D4
:1043C000BEFF0120069007905A4890F839020890E5
:1043D000584890F83C020990564890F83D020A90DF
:1043E000544890F83E020B90092253A10CA8FBF709
:1043F0007FFF0420ADF8440000246EE0C4EBC4004D
:10440000C0EB44204F49461846A9204601F0A8FDBC
:10441000601C04EB840101EBC40145F821007078B5
:10442000F0B3707804EB840101EBC40105EB81016A
:1044300048609DF8180104EB840101EBC40105EB11
:1044400081018860BDF81B010A2190FBF1F004EBAB
:10445000840101EBC40105EB8101C860BDF81D01B9
:10446000642190FBF1F004EB840101EBC40105EB46
:1044700081010861BDF819010A2190FBF1F004EBFC
:10448000840101EBC40105EB81014861B6F8150018
:1044900004EB840101EBC40105EB8101886100E0BC
:1044A00019E0002004EB840101EBC40105EB81015C
:1044B000C86106F13000FBF75FFF804604EB840122
:1044C00001EBC40105EB810101F12000424606F138
:1044D0003001FBF70DFF601CC4B2042C8EDB40F2F0
:1044E000FE320DF5937101A806F078F9142201A9A6
:1044F0000DF22450FBF7FCFE06AA13490DF22450DE
:1045000005F044FE07466FB110A00088ADF8240105
:10451000DDF83005801C81B20023012249A8FEF796
:1045200023FA02E00AA003F07DF90DF5A76DBDE8BE
:10453000F08100003C9D002056312E302E302D534E
:1045400031000000388300203CDC000830380000D7
:104550004865617274206265617420656E636F6482
:1045600065206661696C0D0A0000000070B50446A4
:104570000E4674BB002529E096B92D4A02EBC50210
:1045800091882B4A52F8350004F0FCFB294A02EBD3
:10459000C5029188274A52F8350004F0F1FB13E078
:1045A000012E11D1234A02EBC5029188214A52F80B
:1045B000350004F0E7FB1E4A02EBC50291881C4A55
:1045C00052F8350004F0DCFB681CC5B2042DD3DBC7
:1045D0002CE0FFE7A6B9621E154B03EBC2029188DF
:1045E000621E53F8320004F0CDFB621E114B03EB48
:1045F000C2029188621E53F8320004F0C1FB15E03C
:10460000012E13D1621E0B4B03EBC2029188621E76
:1046100053F8320004F0B6FB621E054B03EBC202F6
:104620009188621E53F8320004F0AAFB70BD0000AE
:10463000E000002000010020F0B5ADF2647D00250F
:1046400000264FF4806154A8FBF779FE4FF49C716B
:1046500006A8FBF774FE4FF4806154A8FBF76FFEC9
:104660004FF400710DF5AA60FBF769FE3F48FBF7B8
:1046700083FE044622463D490DF23510FBF738FE15
:104680003BA00168CDF827104168CDF82B10007AC7
:104690008DF82F00002435E004EB8400374901EB4E
:1046A0008000006800B92BE004EB8400334901EB83
:1046B0008000006904EB8401304A02EB8101C96883
:1046C00004EB84022D4B03EB82029268CDE90021BA
:1046D000029004EB84011F4607EB81014B6804EB59
:1046E000840107EB81010A680DF5AA61881924A1EC
:1046F00003F0A8F80DF5AA60FBF73EFE86B200BFF6
:10470000601CC4B2042CC7DB4FF400720DF5AA6123
:104710000DF13600FBF7ECFD40F2FE320DF5A9710C
:1047200001A806F05BF8142201A90DF5EA60FBF779
:10473000DFFD06AA1D490DF5EA6005F027FD0546D7
:104740006DB11BA00088ADF85001DDF85C07801C3E
:1047500081B20023012254A8FEF706F902E015A059
:1047600003F060F80DF2647DF0BD0000409F002072
:1047700056312E302E302D5331000000D4A70020AA
:104780006D63633D25642C6D6E633D25642C6C6107
:10479000633D25642C63656C6C69643D25642C73F2
:1047A00069676E616C3D25643B000000E4D9000838
:1047B000303200006C6F636174696F6E20656E63E8
:1047C0006F6465206661696C0D0A000070B586B083
:1047D00004460D46002005902A46214601A805F012
:1047E0006BFF05AA084901A805F08AF8064636B10C
:1047F0000598012806D105A003F014F802E00BA0EB
:1048000003F010F806B070BD04DA0008646576693C
:1048100063652073656E64206C6F636174696F6E8D
:1048200020737563636573730D0A000064657669B0
:1048300063652073656E64206C6F636174696F6E6D
:10484000206661696C0D0A001CB50024002602F088
:1048500079FBFEF753FD00F071F907F0A5FC49481C
:104860000D2100234FF4A062CDE9001046A14A4873
:1048700008F03EFB49480E2100234FF4A062CDE929
:10488000001047A14A4808F033FB00200F210346DF
:10489000CA01CDE9001047A14A4808F029FB07F0FA
:1048A000C5FC6EE0142007F06DFD01F041FFFFF73D
:1048B00029FD401B65D0641CFFF724FD054600F070
:1048C00023FA414890F83B0201285AD13E4890F81B
:1048D0003A0210BB02203D4908700A20B5FBF0F1F6
:1048E00000FB115030B9052E04DC701CC6B200F07C
:1048F000AFFE46E0052E44DD00BFBFF34F8F3448C6
:10490000006800F4E06033490843001D3049086046
:10491000BFF34F8F00BF00BFFEE7002601202B49E9
:1049200008702D480068042801D8FEF7F9F92B48D3
:10493000007840B928480068042804D3012027499A
:104940000870FFF779FE0F20B4FBF0F100FB114077
:1049500008B9FFF721FD00F04BFD0F20B4FBF0F18B
:1049600000FB114008B900F073FD601C1E21B0FB74
:10497000F1F201FB1200C0EB0010800008B100F062
:10498000F5FF8FE7040000204162737472456332C3
:104990003030735461736B009130000808000020C0
:1049A0005372764563323030735461736B0000008C
:1049B000CD6D00084170705F436861726765546136
:1049C000736B0000A93800083C9D0020DC0000202B
:1049D0000CED00E00000FA05A40100200C0000200E
:1049E000F8B504460D462088ADF800006846FBF790
:1049F0003BFEC6B2314605A002F014FFA81E82B2EB
:104A00003146A01C00F00CF8F8BD0000736572760A
:104A1000657220636D64203A25640D0A0000000071
:104A200070B506460C4615460B2C39D2DFE804F06B
:104A300038060B10151A1F24292E3300294630463C
:104A400000F068FE2DE029463046FFF7BFFE00BFAC
:104A50002946304600F08EFA23E02946304600F021
:104A6000A7FD1EE02946304600F094FB19E02946D8
:104A7000304600F093FE14E02946304600F0E8FB93
:104A80000FE029463046FFF74FFC0AE02946304642
:104A900000F04EFC05E02946304600F005F800E045
:104AA00000BF00BF70BD000070B5A0B004460D4649
:104AB000682106A8FBF743FC2A46214602A805F018
:104AC000FBFD06AA0A4902A804F01AFF064656B1E1
:104AD00013A8009018AA06A906A0129B02F0A2FE35
:104AE00000F002FD02E00FA002F09CFE20B070BDBD
:104AF000B4DC0008686F7374203A25732020736556
:104B00007276657270617373203A257320706F72CC
:104B1000743A20256420636F756E74203A25730DF6
:104B20000A00000072657374617274206465636FBB
:104B30006465206661696C0D0A00000010B50422EE
:104B40000749084800F034F906480088802805DB4A
:104B500004484088802801DB00F006F810BD000002
:104B6000007806089401002010B500200449088050
:104B7000488004220349024800F0DAFF10BD00001B
:104B800094010020007806082DE9F04705460F46FD
:104B90001446FFF7B7FB06464FF00009681E00EB0E
:104BA0004010484901EB4008142F24D8A07802286F
:104BB00004D00220A070C8F822607CE06068301A3F
:104BC000782878D3D8F82200A6EB000947B9B9F1C4
:104BD0001E0F05D3022020733BA002F023FE6AE0E3
:104BE000002F68D0B9F11E0F65D3012020733AA0C1
:104BF00002F018FE5FE0B7F5967F06D9681E00EB5D
:104C0000C0003A49085C01284BD1A07803281AD08B
:104C10000320A070681E00EBC0003449085C40B956
:104C2000C8F82260681E00EBC0000844C0F80560A8
:104C300041E0681E00EBC0002C490844D0F8050094
:104C4000C8F8220037E00121681E00EBC000274AA7
:104C50001154B7F5967F06D2681E00EBC0001146CE
:104C60000844C0F80160681E00EBC0001F490844FA
:104C7000D0F80100301A3C2805D30021681E00EB53
:104C8000C0001A4A1154D8F82200301AB8F831106E
:104C9000884210D316A002F0C5FD01202073BDE8A4
:104CA000F087B7F5967F06D90420A07060780128B8
:104CB00001D10220607039462846FFF7EFFA00BFA5
:104CC000EDE70000408B0020706F72742070756CEF
:104CD0006C206F75740D0A00706F727420636861C8
:104CE0007267652066756C6C0D0A00001C8B0020D5
:104CF00044657669636520636861726765207075D5
:104D00006C6C0D0A0000000010B511480068401CD2
:104D10000F4908600F480078012810D0022813D1ED
:104D20000846007800F0010020B902210A4804F08A
:104D300029F803E00221084804F022F805E00221E6
:104D4000054804F01FF800E000BF00BF10BD0000E0
:104D500020010020DC000020001401402DE9F0417A
:104D60000546FFF7BFFAE0B10F490888C11700EB0D
:104D700011710E110C490888C11700EB117109114E
:104D8000A0EB0114F00200EBC417084839187A228E
:104D9000284600F00DF804480088401C80B2BDE8A9
:104DA000F0810020FBE7000094010020008006084D
:104DB00010B50346002003E00C781C54491C401C2D
:104DC0009042F9D3002010BD48B9012903D10F2228
:104DD0000E4B1A7018E00F220D4B1A7014E00129C7
:104DE00009D1421E012303FA02F2084B1B781A4331
:104DF000064B1A7008E0421E012303FA02F2044B2C
:104E00001B781A43024B1A707047000024010020DF
:104E10002501002010B5044621460020FFF7D4FFED
:104E200010BD000010B504460448007828B90120E0
:104E300002490870204606F0C9FE10BD2601002078
:104E400010B5002417E00E480078204100F0010062
:104E500078B10C4A02EBC40291880A4A52F8340035
:104E600003F08EFF0120A0400549097881430448E2
:104E70000170601CC4B2024800780028E3D110BD64
:104E8000250100202C01002010B5002417E00E4859
:104E90000078204100F0010078B10C4A02EBC40216
:104EA00091880A4A52F8340003F06CFF0120A040B8
:104EB00005490978814304480170601CC4B2024866
:104EC00000780028E3D110BD240100202C0100202F
:104ED00030B5D3B004464FF4807113A8FBF72FFA16
:104EE00020210BA8FBF72BFA4FF4807113A8FBF7D6
:104EF00026FA142204F130010CA8FBF7F9F9207806
:104F00000B9001201190FE220DF14E0101A805F039
:104F100065FC142201A906A8FBF7EAF90BAA0C49C3
:104F200006A805F033F9054665B10AA00088ADF87A
:104F30004C000998801C81B201231A4613A8FDF782
:104F400013FD02E004A002F06DFC53B030BD000080
:104F500040DB00083033000072656D6F74652063BC
:104F6000686172676520656E636F6465206661695C
:104F70006C0D0A00F0B5A9B005460E46802106A8C2
:104F8000FBF7DDF93246294602A805F095FB06AA93
:104F9000434902A804F0B4FC0746002F7DD00698D0
:104FA000401EC0EBC001C1EB40203E494418142212
:104FB00007A904F13000FBF79BF9069820700C98C4
:104FC000C4F8E6010D9884F84A000E98A4F8480049
:104FD0001420A4F84B0000201FE0642100FB01F224
:104FE00004F14F0101EB00110A60411C64224A43A5
:104FF00004F14F0101EB00114A6011A951F8202082
:1050000004F14F0101EB00118A603C2204F14F01D1
:1050100001EB0011CA60411CC8B21428DDDBB4F8F2
:10502000480094F84A10CDE90010D4F8E631217810
:1050300004F130021CA002F0F5FB2178481E26A9DD
:1050400000F08EFF09202073FFF75CF960600020FC
:10505000C4F81100C4F80D009FED220A10EE100AEA
:10506000C4F8F3010020C4F8EB01C4F8EF010120FB
:10507000A070607084F8900120780021FFF776FA24
:105080002078FEF729FB20780121FFF79DFE2046BE
:10509000FFF71EFF00F06AFC00BF29B0F0BD000062
:1050A00010DB000838830020636861726765207038
:1050B0006F7274202564202C206F72646572202525
:1050C00073202C206D6F6E6579202564202C6D6F08
:1050D0006465202564202C20706172612025642085
:1050E0000D0A0000000000002DE9F041D2B0044696
:1050F0000D4616464FF4807112A8FBF720F91C21CB
:105100000BA8FBF71CF94FF4807112A8FBF717F9F5
:105110000B9411962846FBF72FF980464246294604
:105120000CA8FBF7E5F8FE220DF14A0101A805F0F5
:1051300055FB142201A906A8FBF7DAF80BAA0C49C3
:1051400006A805F023F8074667B10AA00088ADF865
:1051500048000998801C81B201231A4612A8FDF765
:1051600003FC02E004A002F05DFB52B0BDE8F08158
:1051700098DB00083035000072656D6F7465206340
:10518000686172676520656E636F6465206661693A
:105190006C0D0A00F0B58BB004460D461C2104A826
:1051A000FBF7CDF82A462146684605F085FA04AAA1
:1051B0001449684604F0A4FB0746EFB10498401E6A
:1051C000C0EBC001C1EB40200F49461830780121E7
:1051D000FFF7CCF905AA0DA00A9B049902F022FB67
:1051E000002205A90498FFF77FFF0A9830730499FD
:1051F000C8B200F01BFB02E00EA002F013FB0BB0E4
:10520000F0BD00006CDB00083883002073746F7001
:1052100020706F7274203A2564202C206964203A33
:10522000257320726561736F6E203A2564200D0A24
:105230000000000052656D6F74652073746F7020FC
:105240006465636F6465206661696C0D0A00000027
:1052500070B5D0B004460D464FF4927107A8FBF725
:105260006EF82A46214603A805F026FA07AA104937
:1052700003A804F045FB0646A6B10DF21F1208A9CB
:105280000CA0079B02F0CEFA0020112108AB4FF4CE
:10529000A062CDE900100EA1104807F029FE00F031
:1052A000B7FB02E00EA002F0BDFA50B070BD0000E6
:1052B00008DD000875726C203A2573206D64352076
:1052C0003A257320747970653A2025640000000047
:1052D000557067726164655461736B009D5A000874
:1052E0006465766963652073656E64206C6F6361C5
:1052F00074696F6E206661696C0D0A0010B5FEF767
:10530000F1FFC4B27CB108490988481CC11700EB01
:105310005161C911A0EBC111034A11800422034954
:10532000014800F005FC10BD94010020007806083B
:1053300070B586B004460D46002005902A462146E9
:1053400001A805F0B9F905AA0F4901A804F0D8FA97
:1053500006469EB10598012813D100BFBFF34F8FB9
:105360000A48006800F4E06009490843001D074945
:105370000860BFF34F8F00BF00BFFEE705A002F03B
:1053800051FA06B070BD00007CDC00080CED00E0B6
:105390000000FA0572657374617274206465636F4E
:1053A0006465206661696C0D0A00000070B5002418
:1053B000012517E0681EC0EBC001C1EB40200B497E
:1053C0004418A07860B101212846FFF7FDFC0021B8
:1053D0002846FFF7CBF80120A070032084F8900145
:1053E000681CC5B2042DE5DD70BD000038830020C7
:1053F00070B50024FEF786FF13490968401A0A2891
:1054000020D3FEF77FFF10490860002518E0C5EBA8
:10541000C500C0EB45200D494418607870B194F880
:10542000900158B194F89101052807DC94F8910196
:10543000401C84F891012846FEF760F9681CC5B24B
:10544000042DE4DB70BD0000B00100203883002093
:1054500030B59FB000247C216846FAF770FF68469B
:10546000FFF77CFC041E36D09DF80000401EC0EB08
:10547000C001C1EB4020194945187821684600F069
:10548000F5FBBDF87810884222D16846FEF792F904
:1054900013480088844209D0114804809DF8000018
:1054A00085F8EA0100200F4981F83F020D4890F885
:1054B0003F1290F83F02401C0A4A82F83F02052939
:1054C00008DBFFF71BFF0020064981F83F0201E0DF
:1054D000FFF714FF00BF1FB030BD0000388300206D
:1054E000980100203C9D002030B5ABB000202A90F0
:1054F000802105A8FAF723FF802105A8FAF71FFFEE
:1055000000202A907E220DF11601684605F066F90A
:105510001422694625A8FAF7EBFE2AAA0E4925A807
:1055200004F034FE04468CB100250CA00088ADF8D0
:1055300014000BA002F076F92898801C81B2012398
:105540001A4605A8FDF710FA054602E00BA002F086
:1055500069F92BB030BD0000D4DC00083130000008
:10556000736574207365727665722061636B207356
:105570007563636573730D0A0000000072656D6FDB
:1055800074652063686172676520656E636F64652A
:10559000206661696C0D0A0010B5044606F042F9F8
:1055A00004F5E14006F02EF906F03CF910BD0000CC
:1055B000F0B58BB004460D461C2104A8FAF7BFFED7
:1055C0002A462146684605F077F804AA0F4968463E
:1055D00004F096F906469EB10A98A0B90498401EB8
:1055E000C0EBC001C1EB402009494718002087F8F3
:1055F000900105AA07A00A9B049902F013F902E0A2
:105600000CA002F00FF90BB0F0BD000060DA00084A
:1056100038830020737461727420636861726765F7
:10562000206E6F74696679203A25642025732025E1
:10563000640D0A006465766963652073656E642095
:105640006C6F636174696F6E206661696C0D0A002E
:1056500030B5ADF5277D4FF4007122A8FAF76FFE43
:10566000702106A8FAF76BFE1E48FAF785FE05467C
:105670002A461C491BA8FAF73BFE09221AA116A8C4
:10568000FAF736FE04201590012008900690079046
:10569000410222A8FAF753FE4FF4FF720DF18A017E
:1056A00001A805F09BF8142201A9A2A8FAF720FE90
:1056B00006AA1049A2A804F069FD044664B10EA030
:1056C0000088ADF88800A598801C81B200230122D3
:1056D00022A8FDF749F902E008A002F0A3F80DF5B1
:1056E000277D30BD409F002056312E302E302D5367
:1056F0003100000084D90008303100005374617219
:1057000074206D736720656E636F646520666169E0
:105710006C0D0A0070B586B004460D46002004905A
:1057200005902A462146684604F0C6FF04AA0C49A3
:10573000684604F0E5F8064666B1049868B909A021
:1057400002F070F801200E4981F83A020598FFF73F
:1057500023FF02E00BA002F065F806B070BD000068
:10576000A8D90008646576696365207374617274F2
:1057700020757020737563636573730D0A000000F4
:105780003C9D002064657669636520737461727462
:10579000207570206661696C0D0A000070B58CB0D0
:1057A00004460D461C2105A8FAF7C9FD2A462146E4
:1057B00001A804F081FF05AA0A4901A804F0A0F895
:1057C000064656B10B9858B9FFF798FD06AA06A0F1
:1057D0000B9B059902F026F802E00BA002F022F8DC
:1057E0000CB070BDCCDA000853544F502063686190
:1057F000726765206E6F74696679203A256420258A
:10580000732025640D0A000053544F5020636861D3
:10581000726765206E6F74696679206465636F6472
:1058200065206661696C0D0A0000000070B50546D0
:10583000681EC0EBC001C1EB402007494418257029
:1058400000206070A07084F89101FEF75BFDA060FD
:105850002846FEF7CBFC70BD3883002038B5002405
:105860000020009040F2E4713648FAF768FD40F2FB
:10587000E47235493348FFF79BFA00BF5BE0002034
:105880000090C4EBC401C1EB44212E4A88186A463B
:1058900040F2F71100F0D8FDC4EBC400C0EB442087
:1058A00028490844B0F8F701BDF80010884240D0FC
:1058B00000200090C4EBC401C1EB4421214A8818A8
:1058C00040F2F911FAF73BFDC4EBC402C2EB4422EB
:1058D0001E4BD118C4EBC402C2EB4422194BD018A2
:1058E00040F2F912FFF764FAC4EBC401C1EB4421A2
:1058F000144A88186A4640F2F71100F0A5FDC4EB7F
:10590000C400C0EB44200F490844B0F8F701BDF8CB
:10591000001088420DD0C4EBC401C1EB4421094AF8
:10592000881840F2F911FAF70AFD214608A001F0A3
:1059300079FF601CC4B2042CA1DB00F017F8FFF75C
:1059400035FD38BD388300200030060800500608B9
:10595000636C6561722053797374656D506F7274F6
:10596000496E666F5F742025640D0A0010B500242F
:1059700000BF1BE00020C4EBC401C1EB4421134A6B
:105980001144A1F8F701C4EBC401C1EB4421134653
:10599000194401F2F712C4EBC401C1EB4421C81849
:1059A00040F2F71100F050FD601CC4B2042CE1DBA2
:1059B00040F2E4720649054800F0BAF840F2E47299
:1059C0000449024800F0B4F810BD000038830020FC
:1059D000003006080050060810B5044604EB4401E8
:1059E000024A02EB810000F04DFE10BD3082002023
:1059F00070B504460D4604EB4401044A02EB8100F5
:105A0000294600F04AFEC0B270BD0000308200207E
:105A100030B5ABB000202A90802105A8FAF78FFCA2
:105A2000802105A8FAF78BFC01202A907E220DF137
:105A30001601684604F0D2FE1422694625A8FAF73A
:105A400057FC2AAA0C4925A804F0A0FB044674B10F
:105A500000250AA00088ADF814002898801C81B2A7
:105A600001231A4605A8FCF77FFF054602E004A0C3
:105A700001F0D8FE2BB030BD28DD00083037000023
:105A800072656D6F74652063686172676520656E0D
:105A9000636F6465206661696C0D0A0070B5044629
:105AA00000252046FCF73CF8054670BD2DE9F04185
:105AB000054600F0D3F910B90020BDE8F08119497E
:105AC0004888C11700EB11710E1116494888C1179B
:105AD00000EB11710911A0EB0114F00200EBC417E7
